:0300000002087182
:0C087100787FE4F6D8FD758107020800CE
:10085100D3EF9400EE6480948040147DF47C01ED2C
:0F0861001D70011CED4C70F7EF1F70E41E80E15D
:010870002265
:10080000759033E4FBFA7F1E7E00120851AF90789A
:1008100001EF08800123D8FDF5900BBB00010AEB26
:1008200064194A70E1759033E4FAFBD3EB9418EA4B
:100830006480948050CA7F1E7E00120851AF907869
:1008400001EF08800103D8FDF5900BBB00010A8081
:01085000DACD
:00000001FF
