:0300000002089E55
:0C089E00787FE4F6D8FD7581230208E5A0
:100A190002220002140800C000F900A400B00099E5
:0A0A29000092008200F800800090A7
:10080000758901758C3C758AB0D2AFD2A9D28CE5BE
:100810002125E02408F808E62480F580C2A0E4FF42
:10082000FE0FBF00010EEF64144E70F5D2A0AE1E95
:10083000AF1F7C007D0A12092AEF25E02408F80882
:10084000E6F580C2A1E4FEFF0FBF00010EEF6414C5
:100850004E70F5D2A1AE1EAF1F7C007D0A12092A90
:10086000ED25E02408F808E62480F580C2A2E4FE25
:10087000FF0FBF00010EEF64144E70F5D2A2E51D0C
:1008800025E02408F808E6F580C2A3E4FEFF0FBFC8
:0E08900000010EEF64144E70F5D2A302080FA3
:03000B000209B532
:1009B500C0E0C0D0758C3C758AB0E5231523700264
:1009C5001522D3E5239400E52264809480504005E8
:1009D5001DE51D7002051C640A451C702C051FE5EC
:1009E5001F7002051E751C00751D00643C451E70B8
:1009F500180521E52170020520751E00751F00648C
:100A05000A45207004F520F521752200752302D0D2
:040A1500D0D0E0322B
:1008AA00020800E493A3F8E493A34003F68001F25C
:1008BA0008DFF48029E493A3F85407240CC8C3334F
:1008CA00C4540F4420C8834004F456800146F6DF1E
:1008DA00E4800B0102040810204080900A19E47E8B
:1008EA00019360BCA3FF543F30E509541FFEE49313
:1008FA00A360010ECF54C025E060A840B8E493A3DA
:10090A00FAE493A3F8E493A3C8C582C8CAC583CA04
:10091A00F0A3C8C582C8CAC583CADFE9DEE780BEBC
:010A330000C2
:10092A00C2D5EC30E709B2D5E4C39DFDE49CFCEEE8
:10093A0030E715B2D5E4C39FFFE49EFE120960C3F7
:10094A00E49DFDE49CFC800312096030D507C3E4F2
:06095A009FFFE49EFE2257
:10096000BC000BBE0029EF8DF084FFADF022E4CC7B
:10097000F875F008EF2FFFEE33FEEC33FCEE9DEC44
:10098000984005FCEE9DFE0FD5F0E9E4CEFD22ED8A
:10099000F8F5F0EE8420D21CFEADF075F008EF2FD4
:1009A000FFED33FD4007985006D5F0F222C398FDC5
:0509B0000FD5F0EA2262
:00000001FF
