:030000000200E318
:0C00E300787FE4F6D8FD75814702012A01
:1002590020281C000100020003000400150005000D
:10026900060007000800160009000A000B000C0030
:1002790017000D000E000F00100018140800C00030
:10028900F900A400B000990092008200F8008000F3
:0102990090D4
:100003007544007545017590F0209418E4FCFD0DCE
:10001300BD00010CED64144C70F5209457E4F58396
:10002300F5828050209516E4FCFD0DBD00010CED1A
:1000330064144C70F520953C90000180372096168F
:10004300E4FCFD0DBD00010CED64144C70F520962D
:1000530023900002801E209716E4FCFD0DBD0001D5
:100063000CED64144C70F520970A9000038005E4AE
:10007300F544F545E54564014544704FD29330940A
:100083000C309509309606309703FB803EC293D21D
:100093009230940D30950A3096073097047B018097
:1000A3002AC292D29130940D30950A309607309738
:1000B300047B028016C291D29030940D30950A30A1
:1000C30096073097047B0380027B04AF82EF75F0C1
:0F00D3000AA4241CF8EB25E028F8E6FE08E6FF57
:0100E20022FB
:1001FA00120003E5456401454470048E468F47AEFC
:10020A0046AF477C007D0A12016FEF25E02408F80B
:10021A0008E6F580C2A2E4FFFE0FBF00010EEF64FC
:10022A00144E70F5D2A2AE46AF477C007D0A120189
:10023A006FED25E02408F808E6F580C2A3E4FEFF86
:0F024A000FBF00010EEF64144E70F5D2A380A118
:1000EF000201FAE493A3F8E493A34003F68001F22C
:1000FF0008DFF48029E493A3F85407240CC8C33312
:10010F00C4540F4420C8834004F456800146F6DFE0
:10011F00E4800B0102040810204080900259E47E15
:10012F00019360BCA3FF543F30E509541FFEE493D5
:10013F00A360010ECF54C025E060A840B8E493A39C
:10014F00FAE493A3F8E493A3C8C582C8CAC583CAC7
:10015F00F0A3C8C582C8CAC583CADFE9DEE780BE7F
:01029A000063
:10016F00C2D5EC30E709B2D5E4C39DFDE49CFCEEAB
:10017F0030E715B2D5E4C39FFFE49EFE1201A5C37D
:10018F00E49DFDE49CFC80031201A530D507C3E478
:06019F009FFFE49EFE221A
:1001A500BC000BBE0029EF8DF084FFADF022E4CC3E
:1001B500F875F008EF2FFFEE33FEEC33FCEE9DEC07
:1001C500984005FCEE9DFE0FD5F0E9E4CEFD22ED4D
:1001D500F8F5F0EE8420D21CFEADF075F008EF2F97
:1001E500FFED33FD4007985006D5F0F222C398FD88
:0501F5000FD5F0EA2225
:00000001FF
