:03000000020800F3
:0C080000787FE4F6D8FD758109020847F6
:0408CD0002080064B9
:1008B900758901758CEC758A78E4F590D2AFD2A967
:0408C900D28C80FE4F
:03000B0002088C5C
:10088C00C0E0C0D0758CEC758A78E509150970024A
:10089C001508D3E5099400E5086480948050096339
:0D08AC0090FF750800750964D0D0D0E032CF
:10080C000208B9E493A3F8E493A34003F68001F241
:10081C0008DFF48029E493A3F85407240CC8C333ED
:10082C00C4540F4420C8834004F456800146F6DFBC
:10083C00E4800B01020408102040809008CDE47E77
:10084C00019360BCA3FF543F30E509541FFEE493B1
:10085C00A360010ECF54C025E060A840B8E493A378
:10086C00FAE493A3F8E493A3C8C582C8CAC583CAA3
:10087C00F0A3C8C582C8CAC583CADFE9DEE780BE5B
:0108D1000026
:00000001FF
