:030000000200DE1D
:0C00DE00787FE4F6D8FD7581470201250B
:1002540020281C0001000200030004001500050012
:10026400060007000800160009000A000B000C0035
:1002740017000D000E000F00100018140800C00035
:10028400F900A400B000990092008200F8008000F8
:0102940090D9
:10000300E4F544F5457590F0209415E4F583F58205
:10001300FCFD0DBD00010CED64144C70F5309445EE
:10002300209514900001E4FCFD0DBD00010CED646E
:10003300144C70F530952E209614900002E4FCFDCC
:100043000DBD00010CED64144C70F530961720972C
:10005300B7900003E4FCFD0DBD00010CED64144CEE
:1000630070F52097A3D29330940F30950C309609F6
:10007300309706E4FBF544804AC293D29230941041
:1000830030950D30960A3097077B01754400803315
:10009300C292D29130941030950D30960A30970762
:1000A3007B02754400801CC291D29030941030952D
:1000B3000D30960A3097077B0375440080057B0457
:1000C300754400754501AF82EF75F00AA4241CF84E
:0A00D300EB25E028F8E6FE08E6FF42
:0100DD002200
:1001F500120003E5456401454470048E468F47AE01
:1002050046AF477C007D0A12016AEF25E02408F815
:1002150008E6F580C2A2E4FFFE0FBF00010EEF6401
:10022500144E70F5D2A2AE46AF477C007D0A12018E
:100235006AED25E02408F808E6F580C2A3E4FEFF90
:0F0245000FBF00010EEF64144E70F5D2A380A11D
:1000EA000201F5E493A3F8E493A34003F68001F236
:1000FA0008DFF48029E493A3F85407240CC8C33317
:10010A00C4540F4420C8834004F456800146F6DFE5
:10011A00E4800B0102040810204080900254E47E1F
:10012A00019360BCA3FF543F30E509541FFEE493DA
:10013A00A360010ECF54C025E060A840B8E493A3A1
:10014A00FAE493A3F8E493A3C8C582C8CAC583CACC
:10015A00F0A3C8C582C8CAC583CADFE9DEE780BE84
:010295000068
:10016A00C2D5EC30E709B2D5E4C39DFDE49CFCEEB0
:10017A0030E715B2D5E4C39FFFE49EFE1201A0C387
:10018A00E49DFDE49CFC80031201A030D507C3E482
:06019A009FFFE49EFE221F
:1001A000BC000BBE0029EF8DF084FFADF022E4CC43
:1001B000F875F008EF2FFFEE33FEEC33FCEE9DEC0C
:1001C000984005FCEE9DFE0FD5F0E9E4CEFD22ED52
:1001D000F8F5F0EE8420D21CFEADF075F008EF2F9C
:1001E000FFED33FD4007985006D5F0F222C398FD8D
:0501F0000FD5F0EA222A
:00000001FF
