:030000000208777C
:0C087700787FE4F6D8FD758107020800C8
:06084B00E4F5907F05FEBC
:10085100E4FDFCC3ED9FEE6480F8EC6480985015D4
:10086100E4FBFA0BBB00010ABA27F8BB10F50DBD7A
:0508710000010C80DE17
:01087600225F
:100800007590FF20B21AE4F583F582A3E582643285
:10081000458370F720B20930B2FD12084B7590FF86
:1008200020B3E0E4F583F582A3E58264324583706A
:10083000F720B3CF30B3FD12084B7590FF1208516B
:0B084000E4F5901208517590FF80B89D
:00000001FF
