:03000000020903EF
:0C090300787FE4F6D8FD75810A02094AED
:10080000006F010000E400CF00C000AC0099008739
:10081000006F00F100D6006F00B700A0008F006FDE
:10082000007F00710065005F0055004C0043006FC1
:100830000078006B006F005A00500047006F0040C6
:10084000003900320030002A0026006F003C0035DD
:10085000006F002D002803000304020103040300BD
:10086000030402010304030003040700020402005E
:10087000030401000304060002040300010406004F
:100880000104010002040300020406000204070040
:100890000204050101040700010403000204010031
:1008A000030407000204060002040100020403001E
:1008B0000204070002040100030402000304030011
:1008C000030C0500020404000304030003040200F7
:1008D000030C0300020403000304020003040100EC
:1008E000030C0300020402000304010003040700D8
:1008F000020C0300020401000304070002040600C6
:03090000021000E2
:030A660001090083
:10098F00E50A702EE508B4010CEF25E02400F5828E
:10099F00E434088049E508B4020CEF25E0241EF585
:1009AF0082E43408800AEF25E0243CF582E4340821
:1009BF00802CE508B4010CEF25E02410F582E43417
:1009CF0008801BE508B4020CEF25E0242EF582E425
:1009DF003408800AEF25E0244AF582E43408F583D1
:1009EF00E493FC740193FDED1D70011C144C70F722
:0109FF0022D5
:030A6A00DFFE228A
:100A0000E4FE758901758C3C758AAFD2AFD2A9EE30
:100A100090085693FD7008FE7FE8120A6A80F0BDC8
:100A2000FF0A0E7F64120A6AC28C80E3AF060EEFE3
:100A300090085693FBAF060EEF93F50AAF060EEF44
:100A400093F508AF060EEF93F509D28CE50960091E
:0D0A5000B284AF0312098F80F3C28C80B214
:03000B00020A5D89
:090A5D00758C3C758AAF15093255
:10090F00020A00E493A3F8E493A34003F68001F2F4
:10091F0008DFF48029E493A3F85407240CC8C333E9
:10092F00C4540F4420C8834004F456800146F6DFB8
:10093F00E4800B0102040810204080900A66E47ED8
:10094F00019360BCA3FF543F30E509541FFEE493AD
:10095F00A360010ECF54C025E060A840B8E493A374
:10096F00FAE493A3F8E493A3C8C582C8CAC583CA9F
:10097F00F0A3C8C582C8CAC583CADFE9DEE780BE57
:010A6900008C
:00000001FF
