:0300000002087D76
:0C087D00787FE4F6D8FD75810B02086A54
:040800008F828E83D2
:10080400D3E5829400E583648094804042E4750BD0
:10081400B3750A4FF509F508E4FFFEFDFCAB0BAA1E
:100824000AA909A808D3120854401A74FF250BF525
:100834000BE50A34FFF50AE50934FFF509E5083448
:0F084400FFF50880D3E582158270B5158380B16A
:010853002282
:10086A007590FF7F017E00120800E4F5907F01FE7B
:03087A0002080071
:10085400EB9FF5F0EA9E42F0E99D42F0EC6480C81B
:0608640064809845F022BB
:00000001FF
